:02000002B0004C
:1040000000400B003A530B00000006000C000502B4
:084010000401B41400000000DB
:0440180038500B0011
:10401C00034613F8012B002AFBD1181A01387047FC
:10402C0009480A49884208B505D0094A824202D09B
:10403C00121A00F051FF0748074A0021121A00F02B
:10404C0059FF014808BD00BF38E603209C520B0005
:10405C00A8E60320A8E60320F0E7032070B5074E7E
:10406C00074C00F079FBA41BA4080025AC4200D13E
:10407C0070BD56F8043B98470135F7E754520B00D6
:10408C0078520B0000F013B808B500F01DF8BDE82D
:10409C00084000F019BB00F001BA00F007BA007834
:1040AC00B0FA80F04009704701230370704708B5DF
:1040BC000121052000F048FE00F056FCBDE8084048
:1040CC004FF4165100F044BC70B50E2000F066FEA3
:1040DC00104D288000F048FC298804460A2200F084
:1040EC0096FA20460C4C00F086FA2678288846B1C1
:1040FC0000F0BEFA0121052000F037FE00232370EA
:10410C0070BD00F0B5FA3146052000F02EFE0123FB
:10411C00F5E700BFB4E6032038E6032010B5074BE3
:10412C00074A9A600024C3E90044032000F022F9F6
:10413C0021460120BDE8104000F02CB9A8E6032070
:10414C000000FFFF08B5024B1B689B68019308BD7C
:10415C006802030008B5024B1B68DB68019308BDBD
:10416C006802030008B5024B1B685B68019308BD2D
:10417C002C02030008B5024B1B689B68019308BD19
:10418C002C02030008B5024B1B68DB68019308BDC9
:10419C002C02030008B5024B1B681B69019308BD78
:1041AC002C02030008B5024B1B681B6B019308BD66
:1041BC002C02030008B5024B1B685B68019308BD19
:1041CC001802030008B5024B1B685B69019308BD1C
:1041DC001802030008B5024B1B685B6C019308BD09
:1041EC004802030008B5024B1B685B69019308BDCC
:1041FC006402030008B5024B1B68DB68019308BD21
:10420C003C02030008B5024B1B681B69019308BDF7
:10421C003C02030008B5024B1B685B69019308BDA7
:10422C003C02030008B5024B1B689B69019308BD57
:10423C003C02030008B5024B1B68DB69019308BD07
:10424C003C02030008B5024B1B681B6A019308BDB6
:10425C003C02030008B5024B1B689B6A019308BD26
:10426C003C02030008B5024B1B681B6C019308BD94
:10427C003C02030008B5024B1B681B6A019308BD86
:10428C002802030008B5024B1B685B6A019308BD4A
:10429C002802030008B5024B1B689B6A019308BDFA
:1042AC002802030008B5024B1B68DB6A019308BDAA
:1042BC002802030008B5024B1B681B6B019308BD59
:1042CC002802030008B5024B1B685B6B019308BD09
:1042DC002802030008B5024B1B681B6C019308BD38
:1042EC002802030008B5024B1B68DB69019308BD6B
:1042FC003002030008B5024B1B681B6A019308BD12
:10430C003002030008B5024B1B681B68019308BD03
:10431C004C02030008B5024B1B685B68019308BD97
:10432C004C02030008B5024B1B681B69019308BDC6
:10433C004C02030008B5024B1B685B69019308BD76
:10434C004C02030008B5024B1B689B69019308BD26
:10435C004C02030008B5024B1B68DB69019308BDD6
:10436C004C02030008B5024B1B681B6A019308BD85
:10437C004C02030008B5024B1B685B68019308BD37
:10438C002002030008B5024B1B685B69019308BD52
:10439C002002030008B5024B1B68DB6A019308BDC1
:1043AC002002030008B5034B1B68D3F88830019337
:1043BC0008BD00002002030008B5034B1B68D3F8AE
:1043CC009430019308BD00002002030008B5024B95
:1043DC001B685B68019308BD4002030008B5024BE3
:1043EC001B689B68019308BD4002030008B5024B93
:1043FC001B68DB68019308BD4002030008B5024B43
:10440C001B681B69019308BD4002030008B5024BF1
:10441C001B685B69019308BD4002030008B5024BA1
:10442C001B689B69019308BD4002030008B5024B51
:10443C001B68DB69019308BD4002030008B5024B01
:10444C001B681B6A019308BD4002030008B5024BB0
:10445C001B681B6B019308BD4002030008B5024B9F
:10446C001B685B6B019308BD4002030008B5024B4F
:10447C001B681B6C019308BD4002030008B5024B7E
:10448C001B685B6C019308BD4002030008B5024B2E
:10449C001B68DB6B019308BD4402030008B5024B9B
:1044AC001B681B68019308BD1C02030008B5024B76
:1044BC001B685B68019308BD1C02030008B5024B26
:1044CC001B681B6C019308BD1C02030008B5024B52
:1044DC001B685B6C019308BD1C0203000022406842
:1044EC001146FFF7ABBF002240681146FFF7B6BF7D
:1044FC0040680022FFF7AABF4068002281F001014A
:10450C00FFF794BF002340681A461946FFF786BF91
:10451C00002340681A461946FFF778BF002240680E
:10452C001146FFF76BBF002240681146FFF756BFDC
:10453C00406800220221FFF759BF002340681A4649
:10454C00FFF744BF024B03225A60024A1A607047BD
:10455C00B8E6032054500B0010B5044608462170F1
:10456C00FFF7C0FE00236360204610BD054B0222FE
:10457C001A60054B054A9A600020C3E90000FFF75A
:10458C00F9BE00BFCCE60320C0E603200000FFFF0D
:10459C00024800230360FFF71DBE00BFD0E60320D6
:1045AC00F8B506460D468F180024BD420CD0336872
:1045BC0015F8011B9B6830469847031E01DB1C4411
:1045CC00F3E7002C08BF1C462046F8BD13B5044683
:1045DC00084659B10191FFF71BFD23680199DB686F
:1045EC000246204602B0BDE81040184702B010BD8C
:1045FC0003689B68184738B50D210546FFF7F8FF8F
:10460C000A2104462846FFF7F3FF204438BD30B595
:10461C008BB00023012A8DF8243098BF0A2209ACF4
:10462C000D46B1FBF2F101FB125303F0FF03092B12
:10463C0094BF30333733DBB2AA4204F8013DEFD9D3
:10464C002146FFF7C3FF0BB030BD0000014B024AFF
:10465C001A607047D4E6032088500B00024B1A688E
:10466C00024B1A60704700BF3CE60320D8E60320DB
:10467C000021FFF787BE0000014B00229A607047B3
:10468C00DCE60320014B1860704700BF40E60320B6
:10469C0008B50B4B43B100F067F903681B699847E9
:1046AC00002801DDAFF30080064B43B100F0A8FBFE
:1046BC0003681B699847002801DDAFF3008008BD33
:1046CC00000000000000000008B5FFF7E1FFFFF755
:1046DC0079FD014B186008BD40E703200548064AE8
:1046EC00064908B5121A00F0F7FB054B054A1A608B
:1046FC0008BD00BF00F4032004F403200C530B008E
:10470C0000F403201E1C279A07B5002300931A46B9
:10471C006FF07701FFF750FE03B05DF804FB00006B
:10472C0007B543880A2B08D0502B0BD1094B1B68BB
:10473C004BB103B05DF804EB1847FFF7E5FF03B08E
:10474C005DF804FB002300931A466FF07701FFF726
:10475C0033FEF4E7F0E6032010B512480021FFF712
:10476C00B5FE114B1A68114B9A42114B0CBF01222A
:10477C0000221A7001D0FFF7B1FFFFF71BFD0446B2
:10478C0000F0C0FB0B4B13B12046AFF300800021AF
:10479C000848FFF77BFEBDE8104007480021FFF7F3
:1047AC0001BE00BF91460B0000F403201E1C279A8B
:1047BC00ECE60320000000002D470B00704710B5FD
:1047CC0018210446FFF769FC204610BDF0B5037DA7
:1047DC00062B8DB00E4600F104074FF0000412D0EA
:1047EC0000F1080515F8011D0A223046FFF70FFFEE
:1047FC00AF42044419D0002CF4D02E213046FFF7E0
:10480C00F7FE0444EEE72F236A4639460A208DF85A
:10481C000040FFF7E7FC6846FFF7FAFB33680246F7
:10482C00DB68694630469847044620460DB0F0BD1B
:10483C0010B5054B0446112240F8043B002100F052
:10484C0059FB204610BD00BFB0500B000346074A71
:10485C0010B543F8042B01F1100251F8044B43F846
:10486C00044B9142F9D10A781A7010BDB0500B006C
:10487C0010B59DF8084044EA032343EA024242EA99
:10488C00016104234160037510BD000007B5064BA0
:10489C000360CB7800938B784A780978FFF7E8FFB0
:1048AC0003B05DF804FB00BFB0500B0041747047BF
:1048BC007047704708B50021007CFFF743FD40EAC4
:1048CC00E07008BD08B50121007CFFF73BFD40EA14
:1048DC00E07008BD08B5007CFFF72CFD20EAE07005
:1048EC0008BD08B5007CFFF71DFD20EAE07008BD8F
:1048FC0013B50446007C0191FFF71CFD00280199BB
:10490C0001DC607C20B1207CFFF724FD20EAE07004
:10491C0002B010BD007CFFF725BD10B51421044674
:10492C00FFF7BBFB204610BD10B54FF47A7304465D
:10493C0008460021C4E90113044B236001232074B1
:10494C0063741146FFF7DEFC204610BDC4500B000B
:10495C00007C0022FFF7DEBC10B5142204460021B7
:10496C0000F0C8FA204610BD10B50F4C88B003A853
:10497C00FFF7F2FF2178BFF35B8F11F001010FD12C
:10498C0020460191FFF78BFB019948B103AA074818
:10499C00FFF7CAFF2046FFF787FB054800F096FAA1
:1049AC00024808B010BD00BFF4E60320F8E603206F
:1049BC00BD480B0070474174704708B5007CFFF789
:1049CC0049FC20EAE07008BD08B5007CFFF71AFC32
:1049DC0020EAE07008BD08B5007CFFF723FC40EA34
:1049EC00E07008BD08B5007CFFF714FC40EAE070ED
:1049FC0008BD007CFFF71EBC37B5457C04462DB1C5
:104A0C00207C03B0BDE83040FFF7F4BB007C019183
:104A1C00FFF720FC00280199F2DC284603B030BDDA
:104A2C0010B514210446FFF738FB204610BD0000DA
:104A3C0010B54FF47A730446084611460022C4E9B7
:104A4C000123044B2360012320746374FFF70AFCD9
:104A5C00204610BDF4500B007047F8B506461546BD
:104A6C000C468F18BC4206D0336814F8011B9B68A7
:104A7C0030469847F6E72846F8BD007C0022FFF741
:104A8C00F9BB007C0021FFF7FDBB007C0021FFF788
:104A9C0001BC007C0021FFF705BC007C0021FFF766
:104AAC0009BC10B514210446FFF7F7FA204610BDD7
:104ABC0038B5044615464FF47A730022C4E9012335
:104ACC00094B2174084623602946FFF703FCBF30CD
:104ADC0008D16B69DB0705D56868FFF7E7FCE86868
:104AEC00FFF7E4FC204638BD24510B00002240683F
:104AFC001146FFF783BC002240681146FFF79EBCAD
:104B0C00002240681146FFF7A9BC40680022FFF75D
:104B1C009DBC4068002281F00101FFF787BC002397
:104B2C0040681A461946FFF779BC002340681A46BC
:104B3C001946FFF76BBC002240681146FFF74EBCCC
:104B4C00406800220221FFF751BC002340681A463E
:104B5C00FFF73CBC024B04225A60024A1A607047B1
:104B6C000CE703204C510B00002340681A46FFF75A
:104B7C002DBC406800220221FFF738BC002240689F
:104B8C001146FFF72BBC002240681146FFF736BCDC
:104B9C00002340681A461946FFF738BC00234068CA
:104BAC001A461946FFF73ABC40680021FFF75EBC75
:104BBC0040680021FFF762BC4068002281F00101CF
:104BCC00FFF734BC40680022FFF740BC002240686D
:104BDC001146FFF743BC002240681146FFF72EBC7C
:104BEC002DE9F04395B014460D460746FFF720FE1D
:104BFC0000211C220DA8009100F07CF940230C939D
:104C0C0020466B460CAA0021FFF7A4FA04460028A4
:104C1C004BD1024601216868FFF7F0FB0221804668
:104C2C0022466868FFF7EAFB009E81462146002E6B
:104C3C003BD0002939D17368022B03D00A2B11D039
:104C4C00F669F4E7B8F1000FFAD0716906A80431DF
:104C5C0007ADFFF71BFE0FCD3C1D0FC42B68237057
:104C6C004146EDE7B9F1000FEAD07469102201A8B2
:104C7C0000F040F906238DF8143001AD04F108035F
:104C8C001834186859682A4603C20833A3421546DB
:104C9C00F7D101A906A807ADFFF7D8FD0FCD3C1D34
:104CAC000FC42B6823704946CAE70098FFF74AFAED
:104CBC00384615B0BDE8F083024B034A1A60002257
:104CCC005A60704714E7032088510B00232813B552
:104CDC0002D9002002B010BDA0F10B03022B1AD890
:104CEC00174C2178BFF35B8F11F001010BD12046DB
:104CFC000191FFF7D4F9019928B11248FFF72CFC68
:104D0C002046FFF7D1F90F4B1878FFF7F3FA00287C
:104D1C00DFD10120DEE7012809D800F0B1F800212D
:104D2C00007CFFF7CFFA80F00100C0B2D2E709385F
:104D3C000128EED800F064F8007CFFF783FAF2E764
:104D4C001CE7032020E70320232838B504460D4632
:104D5C000AD8FF2908D0FFF7B9FF28B12946204609
:104D6C00BDE83840FFF706BA38BD38B504460D46E5
:104D7C00FFF708FAFF2810D0062804D84D2323FA91
:104D8C0000F0C30709D42046FFF7A0FF28B129463D
:104D9C002046BDE83840FFF7FDB938BD0D2810B5E9
:104DAC0004469CBF0E34A4B22046FFF78FFF50B1CF
:104DBC0003212046FFF7D6F9032804D12046BDE88D
:104DCC001040FFF7EFB9002010BD704738B504460E
:104DDC0014252A46002100F08DF82580402507492E
:104DEC0025812846258200F06FF80449606028462A
:104DFC0000F06AF8E060204638BD00BFBC510B00E3
:104E0C0030B50E4D2978BFF35B8F11F0010487B0DC
:104E1C0011D12846FFF743F968B101A8FFF7D6FF77
:104E2C0001AA21460648FFF703FE2846FFF73CF986
:104E3C00044800F04BF8024807B030BD28E70320C7
:104E4C002CE70320D74D0B007047000038B50A4BF8
:104E5C0003600123044643610849202000F034F824
:104E6C00202560600549A560284600F02DF8C4E9AE
:104E7C000305204638BD00BF18000100BC510B00D3
:104E8C0030B50E4D2978BFF35B8F11F0010487B05C
:104E9C0011D12846FFF703F968B16846FFF7D6FF32
:104EAC006A4621460648FFF703FE2846FFF7FCF842
:104EBC00044800F00BF8024807B030BD44E703206B
:104ECC0048E70320554E0B00FFF7E5B800230146D9
:104EDC001A46184600F044B80A44914200F1FF33D8
:104EEC0000D1704710B511F8014B03F8014F9142F6
:104EFC00F9D110BD02440346934200D1704703F828
:104F0C00011BF9E738B5104B1D68AB6B0446B3B900
:104F1C001820FFF7C3FA0246A86320B90B4B0C48C4
:104F2C004221FFF7CBFA0B490B4BC0E900130B4B9B
:104F3C0083600B23838100210120C2E90401AB6B48
:104F4C0000221C615A6138BD40E60320BD510B00A4
:104F5C00D4510B000E33CDAB34126DE6ECDE0500F4
:104F6C002DE9F843DFF8B8800646D8F800001F4654
:104F7C000D46914600F056F8254B1C6834B9254C6B
:104F8C001C60254B13B11B68C4F8883063681F2B59
:104F9C0007DDD8F8000000F047F84FF0FF30BDE80F
:104FAC00F8834EB3D4F8880088B91C4B23B9D8F8D1
:104FBC00000000F038F8F0E74FF48470FFF76EFA59
:104FCC000028F4D00023C0E94033C4F8880063689B
:104FDC0040F8239001229A4000EB8301D0F8003175
:104FEC001343C0F80031022EC1F8807002BFD0F814
:104FFC0004311343C0F804316368D8F800005A1C1C
:10500C000233626044F8235000F00EF80020C6E72B
:10501C00E8E703205CE7032000000000A9440B0034
:10502C00A4E6032070477047704700002D400B002A
:10503C0069400B0091400B0095400B0000000000F4
:10504C00000000000000000047450B003D450B0030
:10505C0033450B0029450B001D450B0011450B007A
:10506C00B54B0B00BD4B0B0005450B00FD440B0075
:10507C00F3440B00E9440B00ED4B0B006170700026
:10508C0025592D256D2D25645425483A254D3A2555
:10509C0053257A0061736374696D6500000000002C
:1050AC0000000000D9470B00C9470B00CB470B0091
:1050BC000000000000000000BF480B0027490B0057
:1050CC00FD480B00AD450B00EF480B00C1480B0031
:1050DC00D1480B0021490B00E1480B00B9480B00EB
:1050EC000000000000000000C1490B002D4A0B001D
:1050FC00054A0B00AD450B00D5490B00F1490B00DF
:10510C00E3490B00FF490B00C3490B00C7490B00D7
:10511C000000000000000000654A0B00AF4A0B00C5
:10512C00874A0B00674A0B008F4A0B00974A0B000B
:10513C009F4A0B00A74A0B00000000000000000073
:10514C00574B0B004D4B0B00434B0B00F94A0B001C
:10515C00374B0B002B4B0B00B54B0B00BD4B0B0017
:10516C001F4B0B00174B0B000D4B0B00034B0B0095
:10517C00ED4B0B000000000000000000754B0B0015
:10518C007F4B0B00894B0B00934B0B009D4B0B0083
:10519C00A94B0B00B54B0B00BD4B0B00C54B0B00CB
:1051AC00D14B0B00D94B0B00E34B0B00ED4B0B0021
:1051BC00005245454E54206D616C6C6F63207375C5
:1051CC0063636565646564002F6D6E742F776F7211
:1051DC006B73706163652F776F726B73706163654E
:1051EC002F4743432D31302D706970656C696E65A6
:1051FC002F6A656E6B696E732D4743432D31302DCD
:10520C00706970656C696E652D34385F3230323080
:10521C00313132345F313630363138303634312F2B
:10522C007372632F6E65776C69622F6E65776C692C
:10523C00622F6C6962632F7374646C69622F726184
:10524C006E642E630000000029410B0051450B00D9
:10525C0079450B009D450B0059460B0069460B0028
:0C526C0085460B00614B0B00C54C0B008D
:10527800040000001400000003000000474E550021
:10528800F4AD31661BCDE7934C985BCA6B62E0C303
:04529800E868229709
:10529C0001000000A0500B0044E6032000000000B9
:1052AC0000000000000000000000000000000000F2
:1052BC0000000000000000000000000000000000E2
:1052CC0000000000000000000000000000000000D2
:1052DC0000000000000000000000000000000000C2
:1052EC0000000000000000000000000000000000B2
:1052FC00000000000000000000000000ECE70320AC
:04530C00000000009D
:1053160000000102030405060708090A0B0C0D0E1E
:105326000F101112131415161718191A1B1C1D1E0F
:045336001F2028000C
:04533A00785634125B
:04000003B000401CED
:00000001FF
